:100000000C94DF000C9407010C9407010C94070179
:100010000C9407010C9407010C9407010C94070140
:100020000C9407010C9407010C9407010C94070130
:100030000C9407010C9407010C9407010C94070120
:100040000C94C7040C9407010C9407010C9407014D
:100050000C9407010C9407010C9407010C94070100
:100060000C9407010C94070100407A10F35A00A089
:10007000724E18090010A5D4E80000E87648170071
:1000800000E40B54020000CA9A3B000000E1F505B1
:10009000000080969800000040420F000000A086FB
:1000A00001000000102700000000E803000000002D
:1000B0006400000000000A000000000001000000D1
:1000C00000002C76D888DC674F0823DFC1DFAE59EB
:1000D000E1B1B796E5E3E453C63AE651997696E87E
:1000E000E6C28426EB898C9B62ED407C6FFCEFBC02
:1000F0009C9F40F2BAA56FA5F490055A2AF75C932D
:100100006B6CF9676DC11BFCE0E40D47FEF520E662
:10011000B500D0ED902E0300943577050080841E45
:10012000080000204E0A000000C80C333333330FA0
:10013000986E12831141EF8D2114893BE65516CF3D
:10014000FEE6DB18D1844B381BF77C1D901DA4BB49
:10015000E424203284725E228100C9F124ECA1E5FE
:100160003D2700000000240027002A0000000000B6
:10017000250028002B0004040404040404040202E3
:100180000202020203030303030301020408102016
:100190004080010204081020010204081020000021
:1001A0000008000201000003040700000000000036
:1001B0000000000000002300260029009B071124F6
:1001C0001FBECFEFD8E0DEBFCDBF11E0A0E0B1E0B1
:1001D000E0EEF8E102C005900D92A433B107D9F723
:1001E00021E0A4E3B1E001C01D92A037B207E1F71E
:1001F00010E0CFEDD0E004C02197FE010E949C0AE0
:10020000CE3DD107C9F70E9411050C946E0C0C94D9
:100210000000CF92DF92EF92FF92CF93DF93B091E5
:100220004C01A0E08111AB2F80914D0190E0880F2F
:10023000991FAC014E545E4FC0905201D0905301B3
:10024000E0905401F090550130E020E0FA01C591B2
:10025000D491E881B90190E080E0EB23EA130AC071
:100260002F5F3F4F6C157D058E059F0578F36FEF6F
:100270007FEFCB01DF91CF91FF90EF90DF90CF9098
:100280000895833081F028F4813099F08230A9F00C
:1002900008958730A9F08830C9F08430B1F4809196
:1002A00080008F7D03C0809180008F7780938000D5
:1002B000089584B58F7784BD089584B58F7DFBCF75
:1002C0008091B0008F778093B00008958091B00046
:1002D0008F7DF9CF1F93CF93DF93282F30E0F90163
:1002E000E256FE4F8491F901E657FE4FD491F90191
:1002F000EA58FE4FC491CC23A9F0162F81110E9419
:100300004101EC2FF0E0EE0FFF1FE459FE4FA591E5
:10031000B4918FB7F894EC91111108C0D095DE23F9
:10032000DC938FBFDF91CF911F910895DE2BF8CF23
:10033000CF93DF9390E0FC01E657FE4F24918A585B
:100340009E4FFC0184918823D1F090E0880F991F83
:10035000FC01EE59FE4FA591B491FC01E459FE4F0A
:10036000C591D491623071F49FB7F8943C91822F7B
:10037000809583238C93E8812E2B28839FBFDF9168
:10038000CF9108958FB7F894EC912E2B2C938FBFBB
:10039000F6CF8E50806480937C0080917A008064D8
:1003A00080937A0080917A0086FDFCCF809178005E
:1003B0009091790008953FB7F89480913D01909114
:1003C0003E01A0913F01B091400126B5A89B05C018
:1003D0002F3F19F00196A11DB11D3FBFBA2FA92FC4
:1003E000982F8827BC01CD01620F711D811D911DC1
:1003F00042E0660F771F881F991F4A95D1F708952D
:100400008F929F92AF92BF92CF92DF92EF92FF9224
:100410004B015C010E94DB016B017C010E94DB014E
:100420006C197D098E099F09683E7340810591050D
:10043000A8F321E0821A9108A108B10888EEC80E3D
:1004400083E0D81EE11CF11C81149104A104B104C5
:1004500029F7FF90EF90DF90CF90BF90AF909F90E3
:100460008F900895CF92DF92EF92FF920F931F9398
:10047000CF93DF93CDB7DEB7C054D1400FB6F89419
:10048000DEBF0FBECDBF2FB7F89480914101909190
:100490004201A0914301B09144012FBF40914E0110
:1004A00050914F0160915001709151018C019D015B
:1004B000041B150B260B370BB901A801403D574013
:1004C0006105710590F480915601C05CDE4F0FB656
:1004D000F894DEBF0FBECDBFDF91CF911F910F917A
:1004E000FF90EF90DF90CF90089580934E0190930E
:1004F0004F01A0935001B093510110924901109205
:10050000480110924701109246011092450162E0A5
:1005100080914A010E94980161E070E080E090E0E3
:100520000E94000261E080914A010E94980160E00F
:1005300080914A010E946A0180914B01855182306D
:1005400020F58BE291E10197F1F762E080914A0199
:100550000E9498018091570190E08230910538F017
:10056000880F991F880F991F05970197F1F7F89445
:1005700080E00E9409016F3F7F4F8F4F9F4F61F4D2
:1005800010925601789480E0A0CF64E170E080E0A2
:1005900090E00E940002D9CF81E00E9409016F3FE4
:1005A0007F4F8F4F9F4F61F38E010F5F1F4F6E0183
:1005B0008FEBC81A8EEFD80A780180E00E940901FB
:1005C000F701608371838283938381E00E94090134
:1005D000F7016483758386839783F8E0EF0EF11C3F
:1005E000EC14FD0451F7789430E020E0F801C0806D
:1005F000D180E280F3804481558166817781FFEF6D
:10060000CF16DF06EF06FF0631F04F3F8FEF58079A
:100610006807780719F410925601B5CFF90183E005
:10062000F595E7958A95E1F7EB5BFE4F8081880FA2
:10063000C416D506E606F70610F180832F5F3F4FFC
:10064000085F1F4F2832310589F6409149012091FA
:10065000450180914601280F3327331F80914701C0
:10066000280F311D80914801820F932F911D9927EA
:100670004817190681F681E08093560126CF8160E4
:10068000DCCFAF92BF92CF92DF92EF92FF920F93A7
:100690001F93CF93DF936C017B018B01040F151F18
:1006A000EB015E01AE18BF08C017D10759F0699180
:1006B000D601ED91FC910190F081E02DC6010995E4
:1006C000892B79F7C501DF91CF911F910F91FF9091
:1006D000EF90DF90CF90BF90AF900895089590E095
:1006E00080E00895FC0101900020E9F73197AF0107
:1006F000481B590BBC0188E591E00C944103CF9352
:10070000DF93EC0160E08E810E946A0161E08E81DE
:100710000E946A0160E08E810E946A018BE891E08C
:100720000197F1F7DF91CF910895CF92DF92EF9289
:10073000FF920F931F93CF93DF936C017C0187E0AF
:10074000E80EF11CD0E0C0E0062F10E0B8010C2E3E
:1007500002C0759567950A94E2F76170F70181917F
:100760007F010E946A012196C430D10579F7C60144
:10077000DF91CF911F910F91FF90EF90DF90CF907D
:100780000C947F03CF92DF92EF92FF920F931F930F
:10079000CF93DF93EC01F62E642F8C810E946A01C7
:1007A0008D818F3F19F060E00E946A010F2D10E0EB
:1007B0008F8584FF25C06E0187E0C80ED11CF12C07
:1007C000E12CB8010E2C02C0759567950A94E2F7EA
:1007D0006170F60181916F010E946A01FFEFEF1ACB
:1007E000FF0A88E0E816F10461F7CE01DF91CF91AE
:1007F0001F910F91FF90EF90DF90CF900C947F03AB
:10080000B80184E0759567958A95E1F7CE010E945D
:1008100095036F2DCE01DF91CF911F910F91FF9026
:10082000EF90DF90CF900C94950340E0682F88E51F
:1008300091E00C94C203CF93DF93823029F490911E
:10084000670198609093670180936B0110926C012F
:1008500080E480936D0180E180936E0180E5809358
:100860006F0161E080915C010E94980180915D01BF
:100870008F3F19F061E00E94980161E080915E0174
:100880000E949801C8E5D1E09E0128553140809131
:10089000670184FD0BC084E090E02196281739079A
:1008A00044F461E08E810E949801EECF88E090E0F0
:1008B000F4CF8BE39DE00197F1F760E080915C015C
:1008C0000E946A0160E080915E010E946A0180914D
:1008D0005D018F3F19F060E00E946A01809167011D
:1008E00084FD39C063E088E591E00E949503CBE484
:1008F000D6E4CE010197F1F763E088E591E00E942C
:1009000095032197F1F763E088E591E00E94950354
:1009100083E592E00197F1F762E088E591E00E94BB
:1009200095038091670180620E94150484E08093A2
:1009300068018CE00E94150481E00E9415048BE39D
:100940009FE10197F1F782E08093690186E0DF91F2
:10095000CF910C94150480620E9415048BE496E4F8
:100960000197F1F78091670180620E94150483E589
:1009700092E00197F1F78091670180620E9415046F
:10098000D0CF41E00E94C20381E090E008951F9221
:100990000F920FB60F9211242F933F938F939F9333
:1009A000AF93BF938091410190914201A091430187
:1009B000B091440130913C0123E0230F2D3758F5CD
:1009C0000196A11DB11D20933C018093410190939C
:1009D0004201A0934301B093440180913D01909165
:1009E0003E01A0913F01B09140010196A11DB11DB2
:1009F00080933D0190933E01A0933F01B09340014D
:100A0000BF91AF919F918F913F912F910F900FBE0A
:100A10000F901F90189526E8230F0296A11DB11D77
:100A2000D2CFCF93DF93CDB7DEB7A0970FB6F894B0
:100A3000DEBF0FBECDBF789484B5826084BD84B51F
:100A4000816084BD85B5826085BD85B5816085BDC9
:100A500080916E00816080936E0010928100809181
:100A60008100826080938100809181008160809309
:100A70008100809180008160809380008091B1002E
:100A800084608093B1008091B00081608093B00059
:100A900080917A00846080937A0080917A008260ED
:100AA00080937A0080917A00816080937A008091AF
:100AB0007A00806880937A001092C10082E00E94E0
:100AC0001B0480E40E94150400E011E0F80161912C
:100AD0008F0188E591E00E94C104F1E008301F0712
:100AE000A9F762E080914A010E9498012FB7F8941B
:100AF0008091410190914201A0914301B091440144
:100B00002FBF805D9740A109B10980934E0190935A
:100B10004F01A0935001B093510187E38093570197
:100B200061E086E00E94980161E085E00E94980102
:100B300061E084E00E94980161E085E00E946A0122
:100B400060E084E00E946A0162E083E00E94980114
:100B50003DE8232E31E0332E8FB7F89440904101C9
:100B60005090420160904301709044018FBF80918A
:100B7000380190913901A0913A01B0913B01930164
:100B80008201081B190B2A0B3B0BD901C801C29724
:100B9000A105B10508F430C10E943202882341F05A
:100BA00080914B018C3009F46CC048F48B3001F11A
:100BB000C12CD12C90ECE92E9FE7F92E4FC0855126
:100BC0008230B0F710914701612F70E0762F6627D1
:100BD00066277F7780914801682B90E080E00E9433
:100BE000450B2DEC3CEC4CEC5DE30E94D80B65C052
:100BF0006091470170E090E080E00E94450B6B013E
:100C00007C011091480117FF0AC0AC019B0160E014
:100C100070E080E89FEB0E94A20A6B017C011F70CC
:100C2000612F70E090E080E00E94470B2DEC3CECDF
:100C30004CEC5DE30E94D80BA70196010E94A30A29
:100C400026E636E646EE5FE30E94D80B20E030E071
:100C500040E052E40E94A30A6B017C010E94320230
:100C6000882351F080914B018B3030F08D3048F16A
:100C70008551823008F431C160E070E080EC9FE77C
:100C80003CC010914701612F70E090E080E00E942D
:100C9000450B6B017C01609148016F7070E090E042
:100CA00080E00E94470B2DEC3CEC4CEC5DE30E9495
:100CB000D80BA70196010E94A30A17FFC1CF905835
:100CC000BFCF6091460170E090E080E00E94470B4A
:100CD0002DEC3CEC4CEC5DE30E94D80B4B015C012D
:100CE0006091450170E090E080E00E94470B9B011D
:100CF000AC01C501B4010E94A30A0E940F0B4B0175
:100D0000409238015092390160923A0170923B0151
:100D1000A7019601C701B6010E94450C8111D5C0FB
:100D2000B401092C000C880B990B0E94470B9B0106
:100D3000AC010E94450C8111C8C08E010F5E1F4F8F
:100D400022E045E0C701B6010E94DB074AE0BE0190
:100D50006F5F7F4FC4010E94F907E1E080916B0152
:100D60008111E0E0E195F0E0E85AFE4F8489806867
:100D70000E94150487E191E00E947203CE01419622
:100D80000E94720360E088E591E00E94C10441E0A6
:100D900050E061E271E088E591E00E944103E0915A
:100DA0006B01E23008F0ABC0E150F0E0E85AFE4FD2
:100DB000848980680E94150483E291E00E94720396
:100DC000CE0101960E94720381E391E00E947203BA
:100DD00020E030E046E952E4C701B6010E94D30B9F
:100DE00087FD06C080910A0160910801811101C050
:100DF00060E086E00E946A018EE00E94C9017C01E9
:100E00008FE00E94C9016C01E1EAF1E08491F101F7
:100E10000491E9E7F1E01491112309F472C0811102
:100E20000E944101E12FF0E0EE0FFF1FEE54FE4F54
:100E3000A591B4918C91082331E020E009F430E0D1
:100E4000832F922F409134015091350160913601EA
:100E50007091370193018201041B150B260B370B90
:100E6000B901A801423351056105710580F0892B54
:100E700071F480910A0191E0892780930A014092E0
:100E800034015092350160923601709237011FE7AC
:100E9000C11613E0D106C4F18091080190910901B7
:100EA0008F3F91052CF401969093090180930801DE
:100EB0003FE7E31633E0F306A4F161E085E00E942A
:100EC0006A0160E084E00E946A0180E090E0892B82
:100ED00009F442CE0E9400003FCE6091450170911E
:100EE000460176276727762790E080E00E94450B31
:100EF0002DEC3CEC4CEC5DE30E94D80BFECEE1E027
:100F000054CF90E080E09ECF2FE7C216D10484F644
:100F10008091080190910901181619064CF6019765
:100F2000C3CF4FE7E416F10484F660E085E00E9449
:100F30006A0161E0C7CFCF93E8E5F1E01382128246
:100F40008FE091E09183808388E084838FEF8583B5
:100F500089E086838AE08783CBE0C0878CE0818745
:100F60008DE082871386148615861686178681E0A3
:100F70000E941B04A5E4B1E087E015968C931597B9
:100F80001696CC931697E1E9F1E0E4911796EC936D
:100F90001797EDE7F1E0E4911896EC93189740E885
:100FA0005EE360E070E01D964D935D936D937C93DE
:100FB0005097CF910895EF920F931F93CF93DF93A4
:100FC000E80134E047FD34E1042E000C550B57FFD7
:100FD00003C0519541955109E32E022F242FAE01F4
:100FE0000E941E08CE01DF91CF911F910F91EF90CB
:100FF0000895BB274A3031F4992322F4BDE290953D
:1010000081959F4F0C940508BB27FB015527AA2704
:10101000880F991FAA1FA41710F0A41B8395505185
:10102000B9F7A05DAA3308F0A95DA193009779F7FD
:10103000B111B1931192CB010C94550AA9E0B0E023
:10104000E4E2F8E00C946B0A6A01F22EB02E102F45
:10105000FBE3AF2EA01608F41BE31F5F012F27E070
:10106000AE014F5F5F4F0E947D09BC018981982FBF
:101070009970913009F43FC09BE2E1FC04C09E2DC1
:101080009170E0FC3AC05E2D5071E82FE87083FF4C
:1010900046C084E0911101C083E0EF2DE81B8F155D
:1010A00008F0E0E0D6018E2F20E2552351F199237C
:1010B00029F0D6019C93C60101966C0196012D5F23
:1010C0003F4FE2FE24C08EE4D6018C9391E411964A
:1010D0009C93119712968C93D9018E2F90E28111D7
:1010E0001BC0E20FF32FF11D10828EEF9FEF2996A8
:1010F000ECE00C94870A9DE2C6CF90E2C4CF2D931A
:1011000081508111FCCFCE0ED11CE0E0D0CF8EE615
:10111000D6018C9391E6DBCF9D938150E0CF482F91
:10112000447082FF3DC084E0911101C083E08F15BF
:1011300010F4EF2DE81BD6018E2F20E2552309F184
:10114000992329F0D6019C93C60101966C01960162
:101150002D5F3F4FE2FE1BC089E4D6018C938EE4E5
:1011600011968C93119786E412968C93D9018E2F49
:1011700090E2882309F4B5CF9D938150FACF2D9347
:1011800081508111FCCFCE0ED11CE0E0D9CF89E691
:10119000D6018C938EE611968C93119786E6E4CF58
:1011A0009B0177FF02C030E020E0A1E0B0E09111A8
:1011B00002C0B0E0A0E0F9013196AE0FBF1F8B2C4A
:1011C000912CBB2009F461C05401EFEFAE1ABE0AA6
:1011D000AA0DBB1DFA161B0619F014F04F2D4A1B61
:1011E000511188C0E3FC59C07601A42FB0E2A111CF
:1011F0004FC0C40ED11C992309F45BC040E0D60156
:101200001196F60190836D01552309F448C0012F12
:10121000060F9A81582F507184FF03C0913309F44F
:10122000015010160CF047C0093008F008E0EEE25B
:10123000FE2E5B01A01AB10885019194819491085A
:101240002F3F320729F4D601FC92F60131966F0147
:101250006217730794F1021713077CF5DB01A21BD9
:10126000B30BAA24A394B12CAC0EBD1EAA0DBB1DBA
:1012700011968C9121503109D60111962815390506
:10128000F4F0F60180836D01DBCFB12CA12CA0CF4F
:10129000F701B1937F01A150AACF9111B0CFD60130
:1012A000942F50E302C05D9391509111FCCFC40E76
:1012B000D11C40E0ACCF01E0BACF80E3DBCF6217B6
:1012C000730731F4963388F4953311F4552369F09C
:1012D000F6018083FD01842F90E2811108C0A40FE4
:1012E000B11D1C9290E080E002CF81E3F1CF919399
:1012F0008150F3CF911183CF8ACF283008F027E0B7
:101300003327DA01990F311D87FD91600096610541
:10131000710539F432602E5F3D9330E32A95E1F791
:1013200008959F3F30F080387105610509F03C5FFA
:101330003C5F3D93913008F08068911DDF93CF931F
:101340001F930F93FF92EF92192F987F9695E92F95
:1013500096959695E90FFF27EE53FF4F9927332770
:10136000EE24FF24A701E70105900894079428F4D0
:10137000360FE71EF81E491F511D660F771F881F85
:10138000991F0694A1F70590079428F4E70EF81E1C
:10139000491F561FC11D770F881F991F661F06948E
:1013A000A1F70590079428F4F80E491F561FC71F90
:1013B000D11D880F991F661F771F0694A1F705900E
:1013C000079420F4490F561FC71FD81F990F661F97
:1013D000771F881F0694A9F784911095177041F024
:1013E000D695C79557954795F794E7941A95C1F701
:1013F000E8E6F0E068941590159135916591959126
:1014000005907FE27395E118F10A430B560BC90B67
:10141000D009C0F7E10CF11E431F561FC91FD01D94
:101420007EF4703311F48A95E6CFE894015030F0E1
:10143000080F0AF40027021708F4202F2395022F23
:101440007A3328F079E37D932A95E9F710C07D93EC
:101450002A9589F606949795679537951795179469
:10146000E118F10A430B560BC90BD00998F02395EC
:101470007E9173957A3308F070E37C932013B8F76C
:101480007E9170617D9330F0839571E37D9370E37D
:101490002A95E1F71124EF90FF900F911F91CF91C2
:1014A000DF91992787FD90950895DC01FC01672F56
:1014B00071917723E1F7329704C07C916D9370832B
:1014C0006291AE17BF07C8F308952F923F924F92D3
:1014D0005F926F927F928F929F92AF92BF92CF92C4
:1014E000DF92EF92FF920F931F93CF93DF93CDB7CD
:1014F000DEB7CA1BDB0B0FB6F894DEBF0FBECDBF45
:1015000009942A88398848885F846E847D848C8415
:101510009B84AA84B984C884DF80EE80FD800C811E
:101520001B81AA81B981CE0FD11D0FB6F894DEBF01
:101530000FBECDBFED010895EE0FFF1F0590F49192
:10154000E02D09945058BB27AA270E94BA0A0C9490
:10155000990B0E948B0B38F00E94920B20F039F40B
:101560009F3F19F426F40C94880B0EF4E095E7FBEA
:101570000C94820BE92F0E94AA0B58F3BA1762074A
:1015800073078407950720F079F4A6F50C94CC0B2B
:101590000EF4E0950B2EBA2FA02D0B01B90190018E
:1015A0000C01CA01A0011124FF27591B99F0593FD2
:1015B00050F4503E68F11A16F040A22F232F342F1A
:1015C0004427585FF3CF469537952795A795F04068
:1015D0005395C9F77EF41F16BA0B620B730B840B7D
:1015E000BAF09150A1F0FF0FBB1F661F771F881F35
:1015F000C2F70EC0BA0F621F731F841F48F487958D
:1016000077956795B795F7959E3F08F0B0CF93957E
:10161000880F08F09927EE0F9795879508950E94F7
:10162000160B6894B1110C94CD0B08950E94B20B67
:1016300088F09F5798F0B92F9927B751B0F0E1F093
:10164000660F771F881F991F1AF0BA95C9F714C043
:10165000B13091F00E94CC0BB1E008950C94CC0B0A
:10166000672F782F8827B85F39F0B93FCCF386957C
:1016700077956795B395D9F73EF4909580957095D9
:1016800061957F4F8F4F9F4F0895E89409C097FB56
:101690003EF490958095709561957F4F8F4F9F4F49
:1016A0009923A9F0F92F96E9BB279395F69587958D
:1016B00077956795B795F111F8CFFAF4BB0F11F450
:1016C00060FF1BC06F5F7F4F8F4F9F4F16C08823F7
:1016D00011F096E911C0772321F09EE8872F762F2D
:1016E00005C0662371F096E8862F70E060E02AF06E
:1016F0009A95660F771F881FDAF7880F969587955A
:1017000097F9089597F99F6780E870E060E0089581
:101710009FEF80EC089500240A9416161706180609
:101720000906089500240A941216130614060506E5
:101730000895092E0394000C11F4882352F0BB0F76
:1017400040F4BF2B11F460FF04C06F5F7F4F8F4FD9
:101750009F4F089557FD9058440F551F59F05F3F14
:1017600071F04795880F97FB991F61F09F3F79F0C3
:1017700087950895121613061406551FF2CF469545
:10178000F1DF08C0161617061806991FF1CF8695C7
:101790007105610508940895E894BB2766277727AB
:1017A000CB0197F908950E944A0C08F48FEF089531
:1017B0000E94EB0B0C94990B0E948B0B38F00E944B
:1017C000920B20F0952311F00C94820B0C94880B53
:1017D00011240C94CD0B0E94AA0B70F3959FC1F3BA
:1017E000950F50E0551F629FF001729FBB27F00DCF
:1017F000B11D639FAA27F00DB11DAA1F649F662724
:10180000B00DA11D661F829F2227B00DA11D621F72
:10181000739FB00DA11D621F839FA00D611D221F2C
:10182000749F3327A00D611D231F849F600D211D10
:10183000822F762F6A2F11249F5750409AF0F1F093
:1018400088234AF0EE0FFF1FBB1F661F771F881FFC
:1018500091505040A9F79E3F510580F00C94820BA7
:101860000C94CD0B5F3FE4F3983ED4F386957795C7
:101870006795B795F795E7959F5FC1F7FE2B880FA2
:10188000911D9695879597F908950E944A0C880BAB
:10189000990B0895990F0008550FAA0BE0E8FEEF89
:1018A00016161706E807F907C0F012161306E40724
:1018B000F50798F0621B730B840B950B39F40A261D
:1018C00061F0232B242B252B21F408950A2609F4FB
:1018D000A140A6958FEF811D811D0895F894FFCF3B
:1018E000040A04000000000064000100000000C1C0
:1018F0000441036F036E0354656D703A202020206D
:1019000000460048756D69646974793A202020208A
:0419100000250000AE
:00000001FF
